:100000000C9466010C9497010C9497010C94970141
:100010000C9497010C9497010C9497010C94970100
:100020000C9497010C9497010C9497010C949701F0
:100030000C9497010C9497010C9497010C949701E0
:100040000C9497010C9497010C9497010C949701D0
:100050000C9497010C9497010C9497010C944B58B5
:100060000C9497010C94BF580C9495580C949701DC
:100070000C9497010C9497010C9497010C949701A0
:100080000C9497010C9497010C9497010C94970190
:100090000C9497010C9497010C9497010C94970180
:1000A0000C9497010C9497010C9497010C94970170
:1000B0000C9497010C9497010C9497010C94970160
:1000C0000C9497010C9497010C9497010C94970150
:1000D0000C9497010C9497010C9497010C94970140
:1000E0000C9497010C9416290C9443290C94611DCF
:1000F0000C943E020C94FF010C946C0D0C94AE0217
:100100000C944D140C9418020C9403020C940B02E2
:100110000C94262F0C94E8010C94392E0C94F9249D
:100120000C942C020C9430020C948C020C943A0225
:100130000C9450020C94711D0C94320D0C94551DAE
:100140000C941E020C94890D0C9433030C9407023A
:100150000C9414020C94391D0C94CB0A0C94330D9E
:100160000C9422020C94ED010C9441580C945C0DFB
:100170000C94C80E0C94D10C0C94E6020C94E52D52
:100180000C940E020C9434020C94F5580C945F2AD3
:100190000C949E2E0C94C92E0C94851D0C94A002D8
:1001A0000C94BE0E0C947D020C94411D0C942602FE
:1001B0000C943C0D7C3C3E5E2B3D3F2F5B5D3B2C0D
:1001C0002A225C0000000A0B02090C0D0E0807032E
:1001D000040100000000000000000000000000001A
:1001E000000000000000000000000000000000000F
:1001F00012111000000000000000000000000000CC
:1002000000000000000000000000000022002500A7
:1002100028002B002E0031003400020100000501EF
:1002200008010B0100002100240027002A002D00F6
:100230003000330001010000040107010A01050537
:100240000505070508080808020202020A0A08084C
:10025000040404040101010101010101030303037A
:1002600003030303040707070C0C0C0C0C0C0C0C09
:100270000202020206060606060606060B0B0B0B1A
:100280000B0B0B0B0102102020080810204010203F
:10029000408002010201080402010102040810204A
:1002A0004080804020100804020180040201804048
:1002B00020100804020108040201010204081020B1
:1002C00040800102040810204080F55811241FBE10
:1002D000CFEFD1E2DEBFCDBF00E00CBF1AE0A0E05F
:1002E000B2E0EAE9F6EC00E00BBF02C007900D9225
:1002F000AE3BB107D9F72DE0AEEBBAE001C01D92DD
:10030000AD3DB207E1F711E0C6E6D1E000E006C07E
:1003100021970109802FFE010E94FF5DC536D1079C
:1003200080E00807A9F70E946A590C944B630C946B
:10033000000090E0FC01EC57FD4F2491825C9D4F42
:10034000FC018491882399F090E0880F991FFC01AB
:10035000EC5DFD4FA591B491FC01E65FFD4F8591E9
:1003600094918FB7F894EC91E22BEC938FBF0895A2
:10037000282F30E0F901EC53FE4F9491F901EC572E
:10038000FD4F4491225C3D4FF9012491222309F451
:1003900035C0992311F191509231F8F4E92FF0E032
:1003A0008827EA52FE4F8F4F0C94FF5D07020B0225
:1003B000E801FF010302ED010E02140218021E0201
:1003C000220226022C023002ED0134023A023E02E1
:1003D000809180008F7780938000E22FF0E0EE0F15
:1003E000FF1FE65FFD4FA591B4918FB7F894EC9194
:1003F000611148C040954E234C938FBF0895809162
:1004000080008F7DE8CF80918000877FE4CF84B526
:100410008F7784BDE2CF84B58F7DFBCF8091B00014
:100420008F778093B000D9CF8091B0008F7DF9CFC6
:10043000809190008F7780939000CFCF8091900033
:100440008F7DF9CF80919000877FF5CF8091A000BC
:100450008F778093A000C1CF8091A0008F7DF9CFCE
:100460008091A000877FF5CF809120018F778093C6
:100470002001B3CF809120018F7DF9CF80912001A1
:10048000877FF5CF4E2BB8CF2FB7F8946091EB0A4A
:100490007091EC0A8091ED0A9091EE0A2FBF0895B9
:1004A000AF92BF92CF92DF92EF92FF920F931F9382
:1004B000CF93DF936C017B018B01040F151FEB01C0
:1004C0005E01AE18BF08C017D10759F06991D60177
:1004D000ED91FC910190F081E02DC6011995892BD9
:1004E00079F7C501DF91CF911F910F91FF90EF90A8
:1004F000DF90CF90BF90AF900895FC01538D448D55
:10050000252F30E0842F90E0821B930B541710F0BE
:10051000CF96089501970895FC01918D828D9817CB
:1005200061F0A28DAE0FBF2FB11D5D968C91928DA3
:100530009F5F9F73928F90E008958FEF9FEF0895D4
:10054000FC01918D828D981731F0828DE80FF11D9D
:10055000858D90E008958FEF9FEF0895FC01918DB8
:10056000228D892F90E0805C9F4F821B91098F73B1
:100570009927089581EF9CE00E94AE0221E0892B2B
:1005800009F420E0822F0895FC01A48DA80FB92F53
:10059000B11DA35ABF4F2C91848D90E001968F73AB
:1005A0009927848FA689B7892C93A089B1898C91CA
:1005B000837080648C93938D848D981306C0028819
:1005C000F389E02D80818F7D80830895EF92FF92E3
:1005D0000F931F93CF93DF93EC0181E0888F9B8D66
:1005E0008C8D98131AC0E889F989808185FF15C020
:1005F0009FB7F894EE89FF896083E889F989808143
:100600008370806480839FBF81E090E0DF91CF9111
:100610001F910F91FF90EF900895F62E0B8D10E033
:100620000F5F1F4F0F731127E02E8C8D8E110CC0A2
:100630000FB607FCFACFE889F989808185FFF5CFED
:10064000CE010E94C402F1CFEB8DEC0FFD2FF11D06
:10065000E35AFF4FF0829FB7F8940B8FEA89FB892A
:1006600080818062CFCFCF93DF93EC01888D882388
:10067000B9F0AA89BB89E889F9898C9185FD03C005
:10068000808186FD0DC00FB607FCF7CF8C9185FFEA
:10069000F2CF808185FFEDCFCE010E94C402E9CF69
:1006A000DF91CF91089580E090E0892B29F00E949E
:1006B000BA0281110E94000080E090E0892B49F08D
:1006C00080E090E0892B29F00E94000081110E94B7
:1006D000000080E090E0892B49F080E090E0892BD9
:1006E00029F00E94000081110E94000080E090E04B
:1006F000892B49F080E090E0892B29F00E940000CE
:1007000081110C94000008958FB7F8948091DF0A4E
:100710008FBF089561E0FC0184810E94B80180913F
:10072000DE0A81111092DE0A08958EBD00000DB41C
:1007300007FEFDCF8EB508958FEF0C9495030F93B0
:100740001F93CF93DF93EC010E9444028B010E9420
:100750009C038F3F69F00E944402601B710B6C1771
:100760007D07A8F380E0DF91CF911F910F9108954D
:1007700081E0F9CF8CBD9DBD0895CF93DF93EC014F
:100780008091DE0A811109C081E08093DE0A8091A8
:100790008E0D90918F0D0E94BA0360E08C81DF91E5
:1007A000CF910C94B8018F929F92AF92BF92FF921B
:1007B0000F931F93CF93DF93EC01F62E49015A015B
:1007C0008E81882389F08F8198859C012F5F3F4F10
:1007D00038872F838230924018F40E949C03F3CF15
:1007E000CE010E948A031E82CE010E94BD038CE2CC
:1007F00091E00E949F038F2D80640E94950308E181
:1008000010E0D501C401002E04C0B695A7959795B8
:1008100087950A94D2F70E94950308501109083F62
:100820008FEF180771F785E9FF2021F028E087E8AE
:10083000F2128FEF0E94950310E00E949C038A87BA
:1008400087FF04C01F3F11F01F5FF7CFDF91CF91EB
:100850001F910F91FF90BF90AF909F908F90089540
:10086000AF92BF92CF92DF92EF92FF920F931F93BE
:10087000CF93DF93EC016901C801820F931F813090
:10088000924050F58E81882379F088819981AA81E0
:10089000BB8184179507A607B70731F48F81988528
:1008A000C816D90608F042C0488359836A837B83FF
:1008B0008B85833039F089E0440F551F661F771F01
:1008C0008A95D1F79A01AB0161E1CE010E94D30371
:1008D000882389F083E08D83CE010E948A0380E023
:1008E000DF91CF911F910F91FF90EF90DF90CF900C
:1008F000BF90AF9008950E9444025B010E949C0348
:100900008A878F3F69F40E9444026A197B096D321D
:100910007140A0F38FE08D83CE010E948A03DCCF6B
:100920008E3F89F418861F8281E08E838F8198859F
:100930008C159D0550F40E949C038F81988501962B
:1009400098878F83F3CF8DE0E6CF6701E00EF11E2D
:100950000E949C03F60181936F01EE15FF05C1F71C
:100960008F819885080F191F18870F838985882321
:1009700019F001151240A0F08E81882389F08F8133
:1009800098859C012F5F3F4F38872F83823092409C
:1009900018F40E949C03F3CFCE010E948A031E82AA
:1009A00081E09ECFCF92DF92EF92FF920F93CF9391
:1009B000DF93EC01690182E1411551056105710583
:1009C00099F08B85833039F089E0440F551F661FFD
:1009D000771F8A95D1F79A01AB0168E1CE010E9499
:1009E000D303882319F084E08D832DC08EEF0E94FD
:1009F000950376018EEFD81AF70181917F010E944D
:100A00009503EC14FD04C1F78FEF0E9495038FEF5F
:100A10000E9495030E949C038A878F71853071F430
:100A2000011116C0CE010E948A0381E0DF91CF91AF
:100A30000F91FF90EF90DF90CF90089581E18D832B
:100A4000CE010E948A03CE010E948A0380E0EECF8D
:100A500088E592E00E949F03811102C085E1C4CF26
:100A600020E030E0A9016DE0CE010E94D30388238D
:100A700011F084E1B9CF0E949C038111FACFD2CF4B
:100A80000F934091E10A5091E20A6091E30A70915C
:100A9000E40A411551056105710599F0082F21EF10
:100AA0003AE08091EF0A9091F00A0E94D2048823E4
:100AB00049F01092E10A1092E20A1092E30A1092B1
:100AC000E40A81E00F9108950F93CF93C82F80918E
:100AD000E00A811105C0C1E08C2FCF910F910895DC
:100AE0004091000250910102609102027091030254
:100AF0000C2F21EF3AE08091EF0A9091F00A0E94CA
:100B0000D204811102C0C0E0E7CFCC2321F381E001
:100B10000E9440058823B9F31092E00ADDCF8F923E
:100B20009F92AF92BF92EF92FF920F931F93CF933A
:100B30004B015C01C42F8091000290910102A091B1
:100B40000202B091030288159905AA05BB0551F16F
:100B500081E00E94640581110BC080E0CF911F915C
:100B60000F91FF90EF90BF90AF909F908F9008955E
:100B700081EFE82E8AE0F82E00E012E030E020E07D
:100B8000B501A4018091EF0A9091F00A0E9430040F
:100B9000882319F38092000290920102A09202022F
:100BA000B09203024091E00A4C2B4093E00A81E0AE
:100BB000D5CFCF93DF93EC016E857F8588899989A6
:100BC00041E00E948F05882351F08A8920E2829FAC
:100BD000C00111248F50954FDF91CF91089590E07F
:100BE00080E0FACF8F929F92AF92BF92CF92DF9226
:100BF000EF92FF92CF9320E93DE03093F00A2093EB
:100C0000EF0A882309F46DC040E060E070E0CB019A
:100C10000E948F0581110BC080E0CF91FF90EF9073
:100C2000DF90CF90BF90AF909F908F90089580916C
:100C3000AF0C8F7789F78091BB0C9091BC0CA09181
:100C4000BD0CB091BE0C84369105A105B10520F311
:100C5000C090B70CD090B80CE090B90CF090BA0CE2
:100C6000C114D104E104F104B9F240E0C701B601B6
:100C70000E948F05882381F28091FC0A9091FD0AE1
:100C80008115924049F6A091010BAA2329F26091A7
:100C9000FF0A7091000B6115710509F4BDCF209119
:100CA000FE0A222309F4B8CFA093AE0D2093A00D25
:100CB00090E080E030E0E1E0F0E0C82FAF01082EE6
:100CC00002C0440F551F0A94E2F72417350769F054
:100CD00041E0480F01968930910579F74093A90DBD
:100CE0009BCFC12CD12C7601C0CF8093A90D209130
:100CF000070B3091080B50E040E02115310541F41D
:100D00002091150B3091160B4091170B5091180B39
:100D10002093A10D3093A20D4093A30D5093A40DE9
:100D200046015701860E971EA11CB11C8092AF0D83
:100D30009092B00DA092B10DB092B20DE091020B65
:100D4000F091030BF093B50DE093B40DB0E00E9469
:100D5000A75DDC01CB01880D991DAA1DBB1D8093E9
:100D6000B60D9093B70DA093B80DB093B90D25E0D3
:100D7000EE0FFF1F2A95E1F7E150FE4FEF2FFF27FF
:100D8000E6958E0F9F1FA11DB11D8093AA0D909314
:100D9000AB0DA093AC0DB093AD0D8090040B909073
:100DA000050BB12CA12C8114910441F48090110BFE
:100DB0009090120BA090130BB090140BC81AD90A84
:100DC000EA0AFB0AC80CD91CEA1CFB1C04C0F694F6
:100DD000E794D794C794CA95D2F7C092A50DD09244
:100DE000A60DE092A70DF092A80D85EFC8168FE032
:100DF000D806E104F10428F48CE08093B30D81E07F
:100E00000CCF80E125EFC2162FEFD206E104F104EA
:100E1000A0F380911D0B90911E0BA0911F0BB09120
:100E2000200B8093B60D9093B70DA093B80DB0939F
:100E3000B90D80E2E2CF4F925F926F927F928F92D4
:100E40009F92AF92BF92CF92DF92EF92FF920F9359
:100E50001F93CF93DF93EC0142305105610571057B
:100E600090F480E0DF91CF911F910F91FF90EF9070
:100E7000DF90CF90BF90AF909F908F907F906F90BA
:100E80005F904F90089589859A85AB85BC850196C2
:100E9000A11DB11D84179507A607B70710F3CB88CE
:100EA000DC88ED88FE888F89803109F042C0BB273D
:100EB000A72F962F852F480159012A013B01C80E03
:100EC000D91EEA1EFB1E8091000290910102A091A2
:100ED0000202B0910302C816D906EA06FB0699F58C
:100EE0008F898031C1F5B301A20155276627772785
:100EF000440F551F4F50554FFA01918280828091C7
:100F0000E00A81608093E00A8A89823080F08D81D6
:100F10009E81AF81B8858C0D9D1DAE1DBF1D809338
:100F2000E10A9093E20AA093E30AB093E40A81E015
:100F300099CFDB01CA01E7E0B695A795979587950C
:100F4000EA95D1F7B8CF40E0C701B6010E948F05FE
:100F50008111C6CF86CFB301A2014F7755276627EF
:100F60007727440F551F440F551F4F50554FFA0117
:100F700080829182A282B382C2CF8F929F92AF92DF
:100F8000BF92CF92DF92EF92FF920F931F93CF9376
:100F9000DF93FC0181859285A385B4850196A11D0F
:100FA000B11D84179507A607B70770F480E0DF919D
:100FB000CF911F910F91FF90EF90DF90CF90BF9056
:100FC000AF909F908F90089583889488A588B68865
:100FD0008789803189F5BB27A72F962F852FE901B7
:100FE0006A017B018F01BC01CD01680D791D8A1D4D
:100FF0009B1D8090000290900102A0900202B09090
:10100000030286169706A806B90601F5F801878936
:10101000803111F5DD24EE24FF24F601EE0FFF1FD1
:10102000EF50F54F80819181B0E0A0E088839983F3
:10103000AA83BB8381E0BBCFDB01CA01C7E0B695C1
:10104000A79597958795CA95D1F7C9CF40E00E949B
:101050008F058111DBCFAACFE894C7F8DD24EE24F9
:10106000FF24F601EE0FFF1FEE0FFF1FEF50F54FAD
:1010700080819181A281B381BF70D8CF4F925F925E
:101080006F927F92AF92BF92CF92DF92EF92FF92D8
:101090000F931F93CF93DF9300D01F92CDB7DEB78E
:1010A0008C0149835A836B837C835901C12CD12CD9
:1010B0007601412C82E0582E612C712C49815A8195
:1010C0006B817C819E012F5F3F4FC8010E94BD074D
:1010D000882339F1F8018585A301920104C0220F0C
:1010E000331F441F551F8A95D2F7DA01C901C80E74
:1010F000D91EEA1EFB1E49815A816B817C8187893A
:10110000803111F188EF9FEFAFEFBFE0481759072B
:101110006A077B0798F2F501C082D182E282F382EE
:1011200081E00F900F900F900F90DF91CF911F9162
:101130000F91FF90EF90DF90CF90BF90AF907F9096
:101140006F905F904F90089588EF9FEFA0E0B0E020
:10115000DDCFCF93DF93FC012581222321F080E0B6
:10116000DF91CF910895EC018091B30D803159F555
:1011700082E08583178A108E118E128E8091B40DB5
:101180009091B50DB0E0A0E025E0880F991FAA1F4F
:10119000BB1F2A95D1F7838B948BA58BB68B8CE9DB
:1011A0009DE09C8F8B8F81E08C831E821F8218862E
:1011B00019861A861B861C861D861E861F86188A1F
:1011C000198A1A8ACDCF803251F683E08583409107
:1011D000B60D5091B70D6091B80D7091B90D478B58
:1011E000508F618F728F9F012D5E3F4F8CE99DE084
:1011F0000E943E088111D3CFB2CF8F929F92AF92BF
:10120000BF92CF92DF92EF92FF920F931F93CF93F3
:10121000DF93EC018D8181110EC080E0DF91CF91D1
:101220001F910F91FF90EF90DF90CF90BF90AF9004
:101230009F908F9008950B891C892D893E890417F2
:1012400015072607370748F34A015B01823031F45E
:101250008A869B86AC86BD8681E0E0CF81149104AE
:10126000A104B10449F41E821F82188619861A86C9
:101270001B861C861D86F0CF0A851B852C853D8527
:10128000EB8DFC8D858590E00996B901A801415050
:10129000510961097109082E04C076956795579523
:1012A00047950A94D2F775016401E1E0CE1AD1089E
:1012B000E108F10804C0F694E794D794C7948A959E
:1012C000D2F7C416D506E606F70620F0012B022B4E
:1012D000032B11F58F89988DA98DBA8D8E839F83ED
:1012E000A887B9878E010A5F1F4FC114D104E1049A
:1012F000F10409F4ADCF4E815F816885798598014D
:101300008B8D9C8D0E94BD0791E0C91AD108E10820
:10131000F1088111EACF81CFC41AD50AE60AF70A8B
:10132000E1CF3F924F925F926F927F928F929F9206
:10133000AF92BF92CF92DF92EF92FF920F931F93E3
:10134000CF93DF93CDB7DEB72C970FB6F894DEBFFF
:101350000FBECDBF5C01DC015B968D909C905C97CD
:1013600016964D905D906D907C90199741145104A4
:101370006104710409F468C0BFEF4B1A5B0A6B0A81
:101380007B0A312CF40181859285A385B4859C016B
:10139000AD012F5F3F4F4F4F5F4F29873A874B87F4
:1013A0005C87730162011D821E821F821886F40110
:1013B00081859285A385B4852D813E814F81588595
:1013C000281739074A075B0708F056C089859A85B0
:1013D000AB85BC858C159D05AE05BF0550F482E03C
:1013E000C82ED12CE12CF12C92E0492E512C612CED
:1013F000712C9E012F5F3F4FB701A601C4010E94CF
:10140000BD078823C9F189819A81AB81BC81892B71
:101410008A2B8B2B09F1260137019FEF491A590AB4
:10142000690A790A2D813E814F8158852F5F3F4F90
:101430004F4F5F4F2D833E834F8358873FEFC31A33
:10144000D30AE30AF30AB3CFF401408051806280EB
:1014500073803324339496CFC414D504E604F70480
:1014600009F70FEF1FEF2FEF3FE0B701A601C4010F
:101470000E941B07811119C080E02C960FB6F894CA
:10148000DEBF0FBECDBFDF91CF911F910F91FF90B7
:10149000EF90DF90CF90BF90AF909F908F907F9014
:1014A0006F905F904F903F900895D50116964D91A3
:1014B0005D916D917C9119974115510561057105FB
:1014C00039F097018601C4010E941B078823A1F20D
:1014D000D5011696CD92DD92ED92FC9219973320AC
:1014E00051F0D701C6010196A11DB11DF401808301
:1014F0009183A283B383F5018789908DA18DB28DED
:10150000892B8A2B8B2B39F48481C78AD08EE18E6C
:10151000F28E80688483F50184818062848381E017
:10152000ACCF1F93CF93DF93FC012581222371F170
:10153000162FEC01848187FF1EC0CF010E94D905C0
:10154000FC01892B19F18D81823040F48B899C89B3
:10155000AD89BE89848F958FA68FB78F8F89988D1F
:10156000938F828F8F89988DA98DBA8DB58BA48B1F
:101570008C818F778C83111103C08C818F7E8C833B
:10158000812FDF91CF911F910C94640580E0DF9152
:10159000CF911F910895FF920F931F93CF93DF93E5
:1015A000EC018D81813041F090E080E0DF91CF91BE
:1015B0001F910F91FF9008958C8181FFF5CF82FDDF
:1015C0001BC00091EF0A1091F00AC8010E94BD03F0
:1015D0000E949C03F82EC8010E948A038FEFF81224
:1015E000E3CF8C8185FF1BC060E0CE010E94910A91
:1015F0008C818F7D8C83D8CF4B895C896D897E8966
:101600008A859B85AC85BD8584179507A607B70796
:10161000C1F2CE010E94FD088111D3CFC5CF409108
:10162000E10A5091E20A6091E30A7091E40A452BC5
:10163000462B472B21F080E00E944005B5CF80610A
:101640008C832A853B85317080E092E0821B930B6E
:10165000ADCFCF93DF93EC0161E00E94910A882324
:1016600011F01D8281E0DF91CF9108952F923F927A
:101670004F925F926F927F928F929F92AF92BF92A2
:10168000CF92DF92EF92FF920F931F93CF93DF934E
:1016900000D01F921F92CDB7DEB77C015B01342EC4
:1016A0005D83DC0115968C911597813009F0CEC0D1
:1016B00014962C9021FECAC022FCB4C0C32CDD803D
:1016C00022947FE027222094B22DB1702B2ED701D7
:1016D0001A964D915D916D917C911D97C114D10425
:1016E00009F428C15B968D919C915C97FC017480F4
:1016F0007A948A019B0169E036952795179507959D
:101700006A95D1F770228A011170711020C00115FD
:101710001105E9F416964D915D916D917C911997A3
:10172000411551056105710509F099C057968D91D4
:101730009D910D90BC91A02D0097A105B10509F0D8
:10174000B0C0C7010E949109882309F47FC080E0DE
:1017500092E0801B910B46018C159D0508F44C010D
:10176000D7015B964D915C915C9716968D919D91FA
:101770000D90BC91A02D0297A109B109FA01258510
:1017800004C0880F991FAA1FBB1F2A95D2F7468550
:10179000578560897189840F951FA61FB71F9C010B
:1017A000AD01270D311D411D511D29013A01811443
:1017B00032E0930609F07BC0809100029091010213
:1017C000A0910202B091030284159505A605B70504
:1017D00059F48FEF9FEFDC01809300029093010298
:1017E000A0930202B0930302022D9501B301A2015E
:1017F0008091EF0A9091F00A0E94D204882331F17F
:101800009EEFB91AC818D908F70182859385A48577
:10181000B585880D991DA11DB11D82879387A48769
:10182000B58755CFF70143895489658976898285C3
:101830009385A485B585481759076A077B0709F47E
:101840003DCFC7010E94FD08811138CF81E090E0B3
:10185000D70113969C938E93129780E007C09E0148
:101860002F5F3F4F0E94BD07811102C090E079C0F9
:1018700089819A81AB81BC81F701238D348DF90177
:10188000278948EF5FEF60E070E0203121F048EFFA
:101890005FEF6FEF7FE084179507A607B70708F0A3
:1018A00050CFF70186839783A087B18750CF01156A
:1018B000110599F5D7011A964D915D916D917C9125
:1018C0001D9753968D919D910D90BC91A02D481719
:1018D00059076A077B0708F181E00E9464058823A5
:1018E00009F4B4CF409200025092010260920202C9
:1018F000709203028091E00A81608093E00AC8013F
:101900008F50954FD5019C01280D391DFC012E17D4
:101910003F0759F04D914193FACF41E0C301B20125
:101920000E948F058111EBCF91CF281B390BA20E9E
:10193000B31E68CFF70183899489A589B689841776
:101940009507A607B70738F48481438B548B658BC2
:10195000768B80688483F701848183FD1AC0832D90
:101960009D810F900F900F900F900F90DF91CF916E
:101970001F910F91FF90EF90DF90CF90BF90AF90AD
:101980009F908F907F906F905F904F903F902F909F
:10199000089561E0C7010E94910A882309F456CF97
:1019A000DECFCF93DF931F92CDB7DEB7698341E0DF
:1019B00050E0BE016F5F7F4F0E94360B0F90DF91AA
:1019C000CF910895FC01DB0112968D919C911397A4
:1019D0009383828389E795E09183808314968C9129
:1019E0001497848315968C911597858316964D913F
:1019F0005D916D917C9119974683578360877187BC
:101A00001A964D915D916D917C911D9742875387F8
:101A1000648775871E964D915D916D917C9151976C
:101A200046875787608B718B52968C915297828B29
:101A300053964D915D916D917C915697438B548B4C
:101A4000658B768B57964D915D916D917C915A97F0
:101A5000478B508F618F728F5B968D919C91948F85
:101A6000838F08950895FC01818D928D009719F060
:101A700061E00C94910A0895DC015996ED91FC9176
:101A80003097B9F083899489A589B68942855385B1
:101A900064857585841B950BA60BB70B811520E813
:101AA0009207A105B10538F08FEF9FE7A0E0B0E005
:101AB000089590E080E00895DC0159968D919C9105
:101AC000009739F0DC01ED91FC910480F581E02D67
:101AD000199490E080E00895CF93DF93EC01E98DB5
:101AE000FA8D309749F481E090E09B838A8390E0FF
:101AF00080E0DF91CF91089513821282898D9A8DB3
:101B00000E94360BE98DFA8D22813381232B59F700
:101B1000F0CFCF93DF931F92CDB7DEB76983DC019F
:101B2000ED91FC910280F381E02D41E050E0BE0197
:101B30006F5F7F4F19950F90DF91CF9108952F928E
:101B40003F924F925F926F927F928F929F92AF924D
:101B5000BF92CF92DF92EF92FF920F931F93CF939A
:101B6000DF9300D0CDB7DEB7FC018581811118C0AD
:101B70008FEF9FEF0F900F900F90DF91CF911F91FC
:101B80000F91FF90EF90DF90CF90BF90AF909F901C
:101B90008F907F906F905F904F903F902F9008951F
:101BA000848180FFE5CF4389548965897689828560
:101BB0009385A485B585312C212C481759076A07D0
:101BC0007B0719F022242394312C6F012101CE01CF
:101BD00001963C01DF011696BB83AA834114510490
:101BE00009F4C5C0F60142855385648575854A01AF
:101BF000F1E09F22D6015B968D919C915C978A01C2
:101C00009B01E9E03695279517950795EA95D1F759
:101C10001596EC91E230E9F5FC01628D738D848DAF
:101C2000958D600F711F821F931FA12C22E0B22E91
:101C3000A818B9084A145B0408F45201F60124817B
:101C400026FD04C0A114F2E0BF0671F40091000269
:101C5000109101022091020230910302061717072A
:101C60002807390709F05EC040E00E948F058823ED
:101C700009F47ECFC4018F50954FD3019C012A0DEA
:101C80003B1DFC012E173F0709F46CC041914D9399
:101C9000F9CFDC011496BC90BA94B022811491045F
:101CA00079F4B1100DC0452B462B472B69F5F60191
:101CB0008789908DA18DB28D86839783A087B18708
:101CC000D6015B96ED91FC915C9716966D917D9196
:101CD0008D919C911997625071098109910925850F
:101CE00004C0660F771F881F991F2A95D2F70685B3
:101CF000178520893189600F711F821F931F6B0D1B
:101D0000711D811D911D91CFD60116964D915D914A
:101D10006D917C9119972A813B810E94BD078111A9
:101D2000CFCF26CF730185019401AB01BC01809117
:101D3000EF0A9091F00A0E943004882309F418CF2A
:101D40006A0C7B1CF60182859385A485B5858A0D76
:101D50009B1DA11DB11D82879387A487B5874A1853
:101D60005B083CCF281B390B620E731EEBCF2A9405
:101D7000232809F0FDCE898190E0FCCEFC01818D05
:101D8000928D009711F00C949F0D8FEF9FEF0895A7
:101D90000F931F93CF93DF93EC01898D9A8D10E001
:101DA00000E0009799F00E949F0D8C010F3F1007F3
:101DB00069F0898D9A8DFC0142855385648575850E
:101DC00041505109610971090E94FD08C801DF9164
:101DD000CF911F910F9108952F923F924F925F9252
:101DE0006F927F928F929F92AF92BF92CF92DF922B
:101DF000EF92FF920F931F93CF93DF93CDB7DEB790
:101E000062970FB6F894DEBF0FBECDBFFC011B0179
:101E100029013A0195E076946794579447949A95EE
:101E2000D1F74D825E826F827886C12CD12C7601EB
:101E3000448155816681778149835A836B837C8392
:101E4000008511852285338584849584A684B78492
:101E50002A013B018FE076946794579447948A95C2
:101E6000D1F7D901C80141E1880F991FAA1FBB1FF3
:101E70004A95D1F784299529A629B729280139013E
:101E80005BE176946794579447945A95D1F7B501DE
:101E9000A401689414F8440F551F661F771F169409
:101EA000D1F7442A552A662A772A84259525A6251E
:101EB000B72540815181628173812C013D01442607
:101EC0005526662677264F86588A698A7A8AB90106
:101ED000A80186E076956795579547958A95D1F73D
:101EE000240135019AE1440C551C661C771C9A9517
:101EF000D1F7442955296629772928013901A5E117
:101F00007694679457944794AA95D1F7D501C40164
:101F1000072E7BE0880F991FAA1FBB1F7A95D1F768
:101F2000702D482A592A6A2A7B2A44215521662184
:101F3000772140955095609570954F8458886988B1
:101F40007A884425552566257725D601A370BB27B9
:101F5000AA0FBB1FAA0FBB1FA20DB31D8D919D9190
:101F60000D90BC91A02D84279527A627B7274981DE
:101F70005A816B817C8140835183628373830483A4
:101F800015832683378380869186A286B3868487CD
:101F90009587A687B7875FEFC51AD50AE50AF50AC0
:101FA0006D817E818F8198856C157D058E059F05DD
:101FB00009F03ECF62960FB6F894DEBF0FBECDBFDC
:101FC000DF91CF911F910F91FF90EF90DF90CF9015
:101FD000BF90AF909F908F907F906F905F904F9049
:101FE0003F902F900895CF92DF92EF92FF920F9340
:101FF0001F93CF93DF936C018A01EB017B0128E0F3
:10200000E20EF11CF80184819581A681B781F0E38D
:102010008F27F80184839583A683B78320E832E075
:1020200040E050E0B601C8010E94EC0E4991599180
:1020300069917991F80184859585A685B78584276E
:102040009527A627B72784879587A687B787CE15B4
:10205000DF05C1F6DF91CF911F910F91FF90EF90B7
:10206000DF90CF900895CF92DF92EF92FF920F937F
:102070001F93CF93DF937C016B01EA0118821982D1
:102080001A821B821C821D821E821F82188619865C
:102090001A861B861C861D861E861F8620E035E05C
:1020A00040E050E0BC01CE010E94EC0E86012CE025
:1020B000C20ED11C8C819D81AE81BF81E0E18E2753
:1020C0008C839D83AE83BF8320E832E040E050E004
:1020D000B701CE010E94EC0EF8014191519161913E
:1020E00071918F018C859D85AE85BF85842795274D
:1020F000A627B7278C879D87AE87BF87EC15FD0580
:10210000C9F6DF91CF911F910F91FF90EF90DF9073
:10211000CF9008952F923F924F925F926F927F924D
:102120008F929F92AF92BF92CF92DF92EF92FF92E7
:102130000F931F93CF93DF93CDB7DEB760970FB6A2
:10214000F894DEBF0FBECDBF29833A835A016B01DD
:10215000888B9F87F801048515851C870B8726854A
:1021600037853E872D87A1E0B0E0F0E0E0E08D8587
:102170009E850E2E02C0969587950A94E2F781708F
:1021800099278D01015011099C0140E050E060E069
:1021900070E080E090E00E94665E322E432E542E66
:1021A000652E762E872E982E292E8B859C850E2EB9
:1021B00002C0969587950A94E2F7817099279C0151
:1021C00040E050E060E070E080E090E00A2F0E9484
:1021D000665E2325342545255625672578258925DE
:1021E00092251981122719832A8123272A83A4265D
:1021F000B526C626D72638893827388B4F854927F4
:102200004F8731961496E031F10509F0B0CFF70110
:10221000E058FB4FA0812A2F30E040E050E060E022
:1022200070E080E090E005E00E94815E07E10E949E
:10223000665EE42FE0782A2F217030E040E050E025
:1022400060E070E080E090E003E00E94665E622E55
:10225000F32F752E7B01182FB0E8B90FE4272A2F32
:1022600030E040E050E060E070E080E090E004E0CA
:102270000E94815E03E10E94665E4870E4272A2F77
:1022800030E040E050E060E070E080E090E003E0AB
:102290000E94815E0FE00E94665E6226F3272A2F6D
:1022A00030E040E050E060E070E080E090E002E08C
:1022B0000E94815E0BE00E94665E3870F3272A2F31
:1022C00030E040E050E060E070E080E090E001E06D
:1022D0000E94815E07E00E94665E262559812527BF
:1022E0003A813F274E2F4A25572D5B256E2D6C25B1
:1022F0007F2D7D25888981279F859B2760960FB636
:10230000F894DEBF0FBECDBFDF91CF911F910F912B
:10231000FF90EF90DF90CF90BF90AF909F908F9005
:102320007F906F905F904F903F902F9008952F92E5
:102330003F924F925F926F927F928F929F92AF9255
:10234000BF92CF92DF92EF92FF920F931F93CF93A2
:10235000DF93CDB7DEB768970FB6F894DEBF0FBE38
:10236000CDBF9C01A0E5CA2ED12C65E76D8B1C0169
:1023700074E1270E311C2E0185E1480E511CBFE986
:102380008B2E912CD9018C91BD898B27F9018083EB
:102390004B2F50E0FA01EE0FFF1FBA01F5E07595E3
:1023A0006795FA95E1F7CA01A5E0880F991FAA95EC
:1023B000E1F78074DA0113E0AA0FBB1F1A95E1F769
:1023C000A0728A2BDA01B695BA2FAA27B795A795DE
:1023D0008A2B9E2F9071892BDA01B595A795A8704D
:1023E0008A2BDA0173E0B595A7957A95E1F7A47089
:1023F0008A2B962F9270892BD90153969C915397D3
:10240000892753968C935397F6E055954795FA95FF
:10241000E1F746274170E42BEF77ED8B5901ED9101
:10242000CD010197F0E0EE0FFF1FE058FD4F408116
:10243000FC0140832A163B0691F7DE011196FD014F
:102440001D924A165B06E1F7F12CE12CD5016D9047
:102450005D01712C10E000E0B301002E02C0759503
:1024600067950A94E2F7B62FB170BE8BA8014E0DA6
:102470005F1D8FE990E04F39510549F068E2649F94
:10248000C001659F900D1124B4010E94EB5DAC0169
:1024900063E0559547956A95E1F7DF01A40FB51FF5
:1024A0007E89672F70E0788F6F8B440F551F440F24
:1024B000551F440F551F841B950B01C0660F8A954D
:1024C000EAF78C9168276C930F5F1F4F0830110556
:1024D00019F688E0E80EF11C90EAE916F10409F01B
:1024E000B5CF84E1D90101900D928A95E1F7A1E081
:1024F000CA1AD10809F046CF68960FB6F894DEBF25
:102500000FBECDBFDF91CF911F910F91FF90EF9044
:10251000DF90CF90BF90AF909F908F907F906F9003
:102520005F904F903F902F9008952F923F924F923F
:102530005F926F927F928F929F92AF92BF92CF9253
:10254000DF92EF92FF920F931F93CF93DF9300D010
:1025500000D000D01F92CDB7DEB7EB82FC82802E78
:102560001D832E83532E442E352E3C0169837A839E
:1025700018861F82B0E0A0E019861A86212C912CC3
:1025800028853F814B2F5A2F69857A85822D992D79
:10259000AB80BC80C82CDD80EE80F52C042D132D83
:1025A0000E94D55EF1F0F30181913F01E981FA814A
:1025B0009191FA83E9839301215031098927F90127
:1025C000808328853F81822D992DA1E00E94C05EE5
:1025D00028873F83B42FA52F69877A87282E992EC5
:1025E000CFCF2A960FB6F894DEBF0FBECDBFDF91D6
:1025F000CF911F910F91FF90EF90DF90CF90BF9000
:10260000AF909F908F907F906F905F904F903F9092
:102610002F900895FC0160817181828193810895DA
:10262000EF92FF920F931F93CF93DF93EC018B01F7
:102630007A0181ED95E00E940A13688379838A8389
:102640009B8385ED95E00E940A136C837D838E83C6
:102650009F8389ED95E00E940A13688779878A87AE
:102660009B878DED95E00E940A136C877D878E878E
:102670009F87C8010E940A13688B798B8A8B9B8B7A
:10268000C80104960E940A136C8B7D8B8E8B9F8BE6
:10269000C80108960E940A13688F798F8A8F9B8FD2
:1026A000C8010C960E940A136C8F7D8F8E8F9F8FAE
:1026B000C80140960E940A1368A379A38AA39BA32A
:1026C000C80144960E940A136CA37DA38EA39FA306
:1026D000C80148960E940A1368A779A78AA79BA7F2
:1026E000C8014C960E940A136CA77DA78EA79FA7CE
:1026F00018AA19AA1AAA1BAAC7010E940A136CAB2E
:102700007DAB8EAB9FABC70104960E940A1368AFE6
:1027100079AF8AAF9BAFC70108960E940A136CAFCE
:102720007DAF8EAF9FAFC058DF4F188219821A82DB
:102730001B82DF91CF911F910F91FF90EF90089531
:102740000F931F93CF93DF938C01EB01CB01019685
:102750000E94FE5E009769F0F801DC0198012C0FE1
:102760003D1F41914D93E217F307D9F7C80FD91FC9
:102770001882DF91CF911F910F9108956F927F92F0
:102780008F929F92AF92BF92CF92DF92EF92FF9281
:102790000F931F93CF93DF935C0188E390E00E9437
:1027A000FE5E3C01DC01AD92BC925C014C01B6E3E3
:1027B0008B0E911C80E190E00E94FE5EFC01E50121
:1027C0009B838A83A991B9915E011E962D913C91BC
:1027D0001F978CE090E0A901569547952170D22E65
:1027E000D794DD24D794C12C9A012C293D29019737
:1027F00091F71C968D919C911D97482F4170F42E56
:10280000F794FF24F794E12C969587958E299F29BC
:10281000AC01569547958170182F1795112717957C
:1028200000E01A968D919C911B9797878687189642
:102830008D919C9119979587848716968D919C917F
:1028400017979387828714968D919C9115979187FE
:10285000808712968D919C911397978386838D9193
:102860009C919583848333832283402B512B518306
:1028700040838A149B0409F09DCFC301DF91CF915F
:102880001F910F91FF90EF90DF90CF90BF90AF908E
:102890009F908F907F906F9008952F923F924F92CC
:1028A0005F926F927F928F929F92AF92BF92CF92E0
:1028B000DF92EF92FF920F931F93CF93DF93CDB7E9
:1028C000DEB7C056D1090FB6F894DEBF0FBECDBF3C
:1028D000FC013B01A680B780848095800281138132
:1028E000E080F180AE01475D5F4FB401C8010E94F6
:1028F0003310AE01475D5F4FB501C8010E94F30F71
:102900006701CE0101967C01160190E2290E311C6F
:1029100027018DA59EA5AFA5B8A9E0E58E278DA7B7
:102920009EA7AFA7B8AB20E035E040E050E0B8018B
:10293000CE0189960E94EC0ED6014D915D916D916C
:102940007D916D018DA99EA9AFA9B8AD842795276A
:10295000A627B7278DAB9EABAFABB8AF89A99AA915
:10296000ABA9BCA984279527A627B727F201819395
:102970009193A193B1932F01C214D30451F68DA565
:102980009EA5AFA5B8A9F0E78F278DA79EA7AFA7F3
:10299000B8AB20E035E040E050E0B801CE018996C8
:1029A0000E94EC0E89A99AA9ABA9BCA92D968CAF5F
:1029B0009DAFAEAFBFAF2D978DA59EA5AFA5B8A912
:1029C00020E782278DA79EA7AFA7B8AB20E832E00B
:1029D00040E050E0B801CE0189960E94EC0E89A932
:1029E0009AA9ABA9BCA961968CAF9DAFAEAFBFAFA2
:1029F0006197FE01E75BFF4F6E0181E2C80ED11CBB
:102A0000CF010896D60121912D93E817F907D9F740
:102A10000E944402D3016D937D938D939C931397F1
:102A200080E590E00E94FE5EDC01F30196838583E1
:102A300090E5F70101900D929A95E1F7AE01475BA1
:102A40005F4FB401C8010E943310AE01475B5F4F76
:102A5000B501C8010E94F30FCE0189965C014701C0
:102A600090E2890E911C61968CAD9DADAEADBFAD6F
:102A70006197E0E58E2761968CAF9DAFAEAFBFAF9B
:102A8000619720E035E040E050E0B801CE01875B7F
:102A90009F4F0E94EC0EF70181919191A191B1910C
:102AA0007F0165964CAD5DAD6EAD7FAD65978427BA
:102AB0009527A627B727F50181939193A193B19309
:102AC0005F0169964CAD5DAD6EAD7FAD69978427B2
:102AD0009527A627B72769968CAF9DAFAEAFBFAF3E
:102AE0006997E814F90409F0BECF61968CAD9DADED
:102AF000AEADBFAD6197F0E78F2761968CAF9DAF0C
:102B0000AEAFBFAF619720E035E040E050E0B801E4
:102B1000CE01875B9F4F0E94EC0E65968CAD9DADFC
:102B2000AEADBFAD65976D968CAF9DAFAEAFBFAF8D
:102B30006D9761968CAD9DADAEADBFAD619720E751
:102B4000822761968CAF9DAFAEAFBFAF619720E893
:102B500032E040E050E0B801CE01875B9F4F0E9419
:102B6000EC0E65968CAD9DADAEADBFAD6597A196F3
:102B70008CAF9DAFAEAFBFAFA197FE01E75AFF4F3D
:102B8000AF01485F5F4F90E080E02191D6013D9119
:102B90006D012327822B4E175F07B9F7892BE9F4C4
:102BA00081E0F3018483C05ADF4F0FB6F894DEBF93
:102BB0000FBECDBFDF91CF911F910F91FF90EF908E
:102BC000DF90CF90BF90AF909F908F907F906F904D
:102BD0005F904F903F902F900895D30114961C92D0
:102BE000E2CF2F923F924F925F926F927F928F929D
:102BF0009F92AF92BF92CF92DF92EF92FF920F938C
:102C00001F93CF93DF93CDB7DEB7C353D1400FB639
:102C1000F894DEBF0FBECDBFCF5EDE4F99838883B1
:102C2000C151D1404B01C55DDE4F59834883CB5222
:102C3000D140DC014C9011965C90119712966C90EB
:102C4000129713967C90FC01B481A581F681CF5D2B
:102C5000DE4FF883C152D140FC01F781CE5DDE4FDB
:102C6000F883C252D140FC012085318542855385CD
:102C700064857585F401F081CD5EDE4FF883C35124
:102C8000D140F401F181CC5EDE4FF883C451D140D4
:102C9000F401F281C45EDE4FF883CC51D140F401DF
:102CA000F381C35EDE4FF883CD51D140F401F4814E
:102CB000C25EDE4FF883CE51D140F401F581C15E92
:102CC000DE4FF883CF51D140F4012680F781C05EFA
:102CD000DE4FF883C052D140F401F085C65DDE4F6F
:102CE000F883CA52D140F401F185C35DDE4FF88309
:102CF000CD52D140F401F285C25DDE4FF883CE5251
:102D0000D140F401F385C15DDE4FF883CF52D1404D
:102D1000F401F485C05DDE4FF883C053D140F40167
:102D2000F585CF5CDE4FF883C153D140F401F685C1
:102D3000CE5CDE4FF883C253D140F401F785CD5C01
:102D4000DE4FF883C353D140FC018685978508E3A5
:102D50000E949C5E59016A017B018C019201A301D2
:102D60006B2F7A2FCF5DDE4F8881C152D140CE5D6F
:102D7000DE4F9881C252D1400E94B75ECD5EDE4FD9
:102D8000F881C351D140F227CB5EDE4FF883C551A5
:102D9000D140CC5EDE4F1881C451D1401327CA5EAA
:102DA000DE4F1883C651D140C45EDE4F2881CC511E
:102DB000D1402427C95EDE4F2883C751D140C35E6E
:102DC000DE4FE881CD51D140E527C85EDE4FE88374
:102DD000C851D140C25EDE4FF881CE51D140F627B6
:102DE000C75EDE4FF883C951D140C15EDE4F188106
:102DF000CF51D1401727C65EDE4F1883CA51D1404C
:102E00008225C55EDE4F8883CB51D140C05EDE4F48
:102E10003880C052D14039269201A3016B2F7A2FFE
:102E2000CF5DDE4F8881C152D140CE5DDE4F9881AB
:102E3000C252D14003E00E949C5ECB5EDE4FA8816F
:102E4000C551D140A227CE5DDE4FA883C252D140EA
:102E5000CA5EDE4FB881C651D140B327CD5DDE4F8B
:102E6000B883C352D140C95EDE4FE881C751D1401B
:102E7000E427CC5DDE4FE883C452D140C85EDE4F0C
:102E8000F881C851D140F527CB5DDE4FF883C5529C
:102E9000D140C75EDE4F1881C951D1401627CA5DA7
:102EA000DE4F1883C652D140C65EDE4F2881CA511C
:102EB000D1402727C95DDE4F2883C752D140C55E68
:102EC000DE4FA881CB51D140A827C85DDE4FA88333
:102ED000C852D1409325C75DDE4F9883C952D14077
:102EE000512C412CCF5DDE4F1882C152D140B0E051
:102EF000F0E0E0E0612C712CC65DDE4F2881CA5203
:102F0000D140C35DDE4F3881CD52D140C25DDE4F2E
:102F10004881CE52D140C15DDE4F5881CF52D14061
:102F2000C05DDE4F6881C053D140CF5CDE4F7881F9
:102F3000C153D140CE5CDE4F8881C253D140CD5CBD
:102F4000DE4F9881C353D14008E30E949C5ECD5E62
:102F5000DE4FA880C351D140CC5EDE4FB880C45153
:102F6000D140C45EDE4FC880CC51D140C35EDE4F3D
:102F7000D880CD51D140C25EDE4FE880CE51D140E5
:102F8000C15EDE4FF880CF51D140022DC05EDE4FD2
:102F90001881C052D1400E94B75E2525C65DDE4F24
:102FA0002883CA52D1403425C35DDE4F3883CD52C9
:102FB000D140CF5DDE4F1881C152D1401427C25D90
:102FC000DE4F1883CE52D1405B27C15DDE4F588360
:102FD000CF52D1406F27C05DDE4F6883C053D140D0
:102FE0007E27CF5CDE4F7883C153D1408625CE5CEF
:102FF000DE4F8883C253D1409725CD5CDE4F988346
:10300000C353D1409501A601B701822DC05EDE4FAA
:103010009881C052D14003E00E949C5EC65DDE4FA5
:10302000A881CA52D140A227CD5EDE4FA883C351EA
:10303000D140C35DDE4F1881CD52D1401327CC5E05
:10304000DE4F1883C451D140C25DDE4F2881CE527D
:10305000D1402427C45EDE4F2883CC51D140C15DCE
:10306000DE4FA881CF52D140A527C35EDE4FA88393
:10307000CD51D140C05DDE4F1881C053D1401627DD
:10308000C25EDE4F1883CE51D140CF5CDE4F288127
:10309000C153D1402727C15EDE4F2883CF51D14095
:1030A000CE5CDE4F2880C253D1402826CD5CDE4F57
:1030B0008881C353D1408927C05EDE4F8883C052C8
:1030C000D140CB5EDE4F2881C551D140CA5EDE4F74
:1030D0003881C651D140C95EDE4F4881C751D140C9
:1030E000C85EDE4F5881C851D140C75EDE4F68814F
:1030F000C951D140C65EDE4F7881CA51D140C55E0C
:10310000DE4F8881CB51D140932D08E30E949C5E15
:10311000CE5DDE4FA880C252D140CD5DDE4FB8807B
:10312000C352D140CC5DDE4FC880C452D140CB5D8C
:10313000DE4FD880C552D140CA5DDE4FE880C6520E
:10314000D140C95DDE4FF880C752D140C85DDE4F27
:103150000881C852D140C75DDE4F1881C952D140A5
:103160000E94B75ECD5EDE4FA881C351D140A22739
:10317000CB5EDE4FA883C551D140CC5EDE4F1881B7
:10318000C451D1401327CA5EDE4F1883C651D140C7
:10319000C45EDE4F2881CC51D1402427C95EDE4F6A
:1031A0002883C751D140C35EDE4FA881CD51D140A5
:1031B000A527C85EDE4FA883C851D140C25EDE4F4E
:1031C0001881CE51D1401627C75EDE4F1883C951F2
:1031D000D140C15EDE4F2881CF51D1402727C65E46
:1031E000DE4F2883CA51D1408225C55EDE4F8883D9
:1031F000CB51D140C05EDE4F3880C052D14039261D
:103200009501A601B701802FC75DDE4F9881C95295
:10321000D14003E00E949C5ECB5EDE4FA881C55189
:10322000D140A227CE5DDE4FA883C252D140CA5EF4
:10323000DE4F1881C651D1401327CD5DDE4F188374
:10324000C352D140C95EDE4F2881C751D1402427E7
:10325000CC5DDE4F2883C452D140C85EDE4FA881CA
:10326000C851D140A527CB5DDE4FA883C552D140C0
:10327000C75EDE4F1881C951D1401627CA5DDE4FA7
:103280001883C652D140C65EDE4F2881CA51D14054
:103290002727C95DDE4F2883C752D140C55EDE4F68
:1032A000A881CB51D140A827C85DDE4FA883C85262
:1032B000D1409325C75DDE4F9883C952D140252D5B
:1032C000342DCF5DDE4F4881C152D1405B2F6F2F2F
:1032D0007E2FC301A1E00E94C05E522E432ECF5D1F
:1032E000DE4F4883C152D140B52FF62FE72F3C0166
:1032F000AFE10E94DE5E09F0FFCD0E944402C55D91
:10330000DE4FE881F981CB52D140608371838283A3
:10331000938380E190E00E94FE5EFC01C55DDE4F7C
:10332000A881B981CB52D14016969C938E93159764
:10333000CE5DDE4FB881C252D140B083CD5DDE4F4D
:103340001881C352D1401183CC5DDE4F2881C45215
:10335000D1402283CB5DDE4F8881C552D14083832B
:10336000CA5DDE4F9881C652D1409483C95DDE4F5D
:10337000A881C752D140A583C85DDE4FB881C8522D
:10338000D140B683C75DDE4F1881C952D140178343
:10339000CB5EDE4F2881C551D1402087CA5EDE4F0B
:1033A0008881C651D1408187C95EDE4F9881C7515F
:1033B000D1409287C85EDE4FA881C851D140A38713
:1033C000C75EDE4FB881C951D140B487C65EDE4FBB
:1033D0001881CA51D1401587C55EDE4F2881CB5177
:1033E000D14026873786D401BC91CD5EDE4FB883AD
:1033F000C351D140F401F181CC5EDE4FF883C4515A
:10340000D140D40112962C90129713966C9013977A
:1034100014967C9014971596BC91F40146805780C1
:10342000C084F185C65DDE4FF883CA52D140F401F5
:10343000D284E384F4841585A684B784CD5EDE4F00
:10344000F881C351D140F983CC5EDE4FE881C4518D
:10345000D140EA832B826C827D82BE834F82588664
:10346000FE013996C45EDE4F1882CC51D140C35E56
:10347000DE4F1882CD51D140812C912CC25EDE4F9F
:103480001882CE51D140C15EDE4F1882CF51D1405B
:10349000C05EDE4F1882C052D140CF5DDE4F188231
:1034A000C152D1402C2DC65DDE4F3881CA52D14069
:1034B0004D2D5E2D6F2D712FC50108E30E949C5E7E
:1034C000CD5EDE4FA880C351D140CC5EDE4FB880C8
:1034D000C451D140C22CD62CE72CFB2E82010E9475
:1034E000B75EC45EDE4FC880CC51D140C226C35EF9
:1034F000DE4F1881CD51D1401327C65DDE4F1883B2
:10350000CA52D140D42ED824E52EE924C25EDE4F23
:10351000F880CE51D140F626C15EDE4F1881CF51E2
:10352000D1401727C05EDE4FA880C052D140A826E8
:10353000CF5DDE4FB880C152D140B926CD5EDE4F9F
:103540002881C351D140CC5EDE4F3881C451D14077
:10355000422D562D672D7B2FC20103E00E949C5EF9
:103560002C25CD5EDE4F2883C351D140C65DDE4F92
:10357000B881CA52D140B327CC5EDE4FB883C45164
:10358000D1402D2C24266E2C65267F2C7626B12F3B
:10359000B7274A2C48265B2C59262083CC5EDE4F69
:1035A0002881C451D1402183228263827482B583F1
:1035B000468257823896C45EDE4F2881CC51D14076
:1035C000C35EDE4F3881CD51D140A401C25EDE4FD3
:1035D0006881CE51D140C15EDE4F7881CF51D1405C
:1035E000C05EDE4F8881C052D140CF5DDE4F9881F2
:1035F000C152D140A1E00E94C05EC45EDE4F28836C
:10360000CC51D140C35EDE4F3883CD51D1404A0109
:10361000C25EDE4F6883CE51D140C15EDE4F7883FB
:10362000CF51D140C05EDE4F8883C052D140CF5DC4
:10363000DE4F9883C152D140AFE10E94DE5E09F0B7
:1036400031CFFE01E750FF4FDE011196CE5DDE4F18
:103650002881C252D140CB5EDE4F8881C551D14016
:103660002827CD5DDE4F3881C352D140CA5EDE4F80
:103670009881C651D1403927CC5DDE4F4881C45274
:10368000D140C95EDE4F1881C751D1404127CB5D83
:10369000DE4F5881C552D140C85EDE4F8881C85187
:1036A000D1405827CA5DDE4F6881C652D140C75EFF
:1036B000DE4F9881C951D1406927C95DDE4F7881BD
:1036C000C752D140C65EDE4F1881CA51D140712722
:1036D000C85DDE4F8881C852D140C55EDE4F9881FB
:1036E000CB51D1408927C75DDE4F9881C952D14067
:1036F00093250DE30E949C5ECE5DDE4F2883C2526F
:10370000D140CD5DDE4F3883C352D140CC5DDE4F1A
:103710004883C452D140CB5DDE4F5883C552D1405F
:10372000CA5DDE4F6883C652D140C95DDE4F7883E3
:10373000C752D140C85DDE4F8883C852D140C75DB3
:10374000DE4F9883C952D1402081CB5EDE4F188175
:10375000C551D14021273181CA5EDE4F8881C651D3
:10376000D14038274281C95EDE4F9881C751D14090
:1037700049275381C85EDE4F1881C851D140512777
:103780006481C75EDE4F8881C951D1406827758149
:10379000C65EDE4F9881CA51D140792786819781D4
:1037A000C55EDE4F1881CB51D14081279325CE5D78
:1037B000DE4FA880C252D140CD5DDE4FB880C352EB
:1037C000D140CC5DDE4FC880C452D140CB5DDE4FCE
:1037D000D880C552D140CA5DDE4FE880C652D14084
:1037E000C95DDE4FF880C752D140C85DDE4F088109
:1037F000C852D140C75DDE4F1881C952D1400E94E6
:10380000CC5E08E00E949C5ECB5EDE4F2883C551F3
:10381000D140CA5EDE4F3883C651D140C95EDE4F0B
:103820004883C751D140C85EDE4F5883C851D1404C
:10383000C75EDE4F6883C951D140C65EDE4F7883D4
:10384000CA51D140C55EDE4F8883CB51D140392E5D
:103850003897AE17BF0709F0F9CE2A2DCB5EDE4FA1
:103860008881C551D14028273B2DCA5EDE4F988103
:10387000C651D14039274C2DC95EDE4FA881C751B2
:10388000D1404A275D2DC85EDE4FB881C851D14076
:103890005B276E2DC75EDE4FE881C951D1406E2790
:1038A0007F2DC65EDE4FF881CA51D1407F27C85DAB
:1038B000DE4F8881C852D140C55EDE4F1881CB51A2
:1038C000D1408127C75DDE4F9881C952D1409325F1
:1038D0000DE30E949C5E39014A01B62FA72FF82FF5
:1038E000E92F2981CB5EDE4F8881C551D140282741
:1038F0003A81CA5EDE4F9881C651D14039274B814B
:10390000C95EDE4F1881C751D14041275C81C85E36
:10391000DE4F8881C851D14058276D81C75EDE4F88
:103920009881C951D14069277E81C65EDE4F1881DA
:10393000CA51D14071278F819885C55EDE4F1881AD
:10394000CB51D1408127932553016401EB2EFA2EF0
:103950000F2F1E2F0E94CC5ECF5FDE4F6882C150BA
:10396000D140CE5FDE4F7882C250D140CD5FDE4F76
:103970008882C350D140CC5FDE4F9882C450D14082
:10398000CB5FDE4FB883C550D140CA5FDE4FA883FE
:10399000C650D140C95FDE4FF883C750D140C85FE1
:1039A000DE4FE883C850D14008E00E949C5EC75FAC
:1039B000DE4F2883C950D140C65FDE4F3883CA50DE
:1039C000D140C55FDE4F4883CB50D140C45FDE4F4E
:1039D0005883CC50D140C35FDE4F6883CD50D14077
:1039E000C25FDE4F7883CE50D140C15FDE4F888307
:1039F000CF50D140C05FDE4F9883C051D14040E1ED
:103A000050E0BE016F5F7E4FCF5EDE4F88819981AF
:103A1000C151D1400E944260892B19F581E0C55DFA
:103A2000DE4FA881B981CB52D14014968C93CD5CE6
:103A3000DE4F0FB6F894DEBF0FBECDBFDF91CF9142
:103A40001F910F91FF90EF90DF90CF90BF90AF90BC
:103A50009F908F907F906F905F904F903F902F90AE
:103A60000895C55DDE4FE881F981CB52D1401482C3
:103A7000DECFAB01FC0162817381808191810C9466
:103A8000F115CF93DF93EC01888199810E949A5FB1
:103A90008A819B810E949A5F8C819D810E949A5F9E
:103AA000CE01DF91CF910C949A5FCF93DF93EC011D
:103AB000888199810E949A5FCE01DF91CF910C9409
:103AC0009A5FCF93DF93EC01888599850E949A5F76
:103AD000888199810E949A5FCE01DF91CF910C94E9
:103AE0009A5FCF93DF93EC01888599850E949A5F56
:103AF0008A819B810E949A5F888199810E949A5F46
:103B0000CE01DF91CF910C949A5FCF93DF93EC01BC
:103B1000888199810E949A5F8A819B810E949A5F25
:103B2000CE01DF91CF910C949A5FEF92FF920F93A9
:103B30001F93CF93DF930097D1F0EC018C010E5FC0
:103B40001F4F7C0188E3E80EF11CF80181919191EF
:103B50008F010E949A5F0E151F05B9F7CE01DF9104
:103B6000CF911F910F91FF90EF900C949A5FDF918E
:103B7000CF911F910F91FF90EF9008952F923F9258
:103B80004F925F926F927F928F929F92AF92BF926D
:103B9000CF92DF92EF92FF920F931F93CF93DF9319
:103BA000CDB7DEB7C85BD1090FB6F894DEBF0FBE44
:103BB000CDBFC755DF4F99838883C95AD040C955B7
:103BC000DF4F79836883C75AD040C555DF4F59838B
:103BD0004883CB5AD040CB57DF4FC882C558D0401E
:103BE000CA57DF4FD882C658D040C157DF4FE8824E
:103BF000CF58D040C057DF4FF882C059D040CF5681
:103C0000DF4F0883C159D040CE56DF4F1883C259C9
:103C1000D040CD56DF4F2883C359D040CC56DF4F1C
:103C20003883C459D040C355DF4FB982A882CD5ADA
:103C3000D04064E1A62EB12CC12CD12CE12CF12C6A
:103C400000E010E0CB57DF4F2881C558D040CA575D
:103C5000DF4F3881C658D040C157DF4F4881CF5819
:103C6000D040C057DF4F5881C059D040CF56DF4FAA
:103C70006881C159D040CE56DF4F7881C259D040BB
:103C8000CD56DF4F8881C359D040CC56DF4F988145
:103C9000C459D0400E94095ECB56DF4F2883C559D6
:103CA000D040CA56DF4F3883C659D040C956DF4F7F
:103CB0004883C759D040C856DF4F5883C859D040B1
:103CC000C756DF4F6883C959D040C656DF4F788347
:103CD000CA59D040C556DF4F8883CB59D040C4560F
:103CE000DF4F9883CC59D040A1E00E94C05EC356FC
:103CF000DF4F2883CD59D040C256DF4F3883CE598D
:103D0000D040C156DF4F4883CF59D040C056DF4F17
:103D10005883C05AD040CF55DF4F6883C15AD04036
:103D2000CE55DF4F7883C25AD040CD55DF4F8883C0
:103D3000C35AD040CC55DF4F9883C45AD040CB579C
:103D4000DF4F2881C558D040CA57DF4F3881C65849
:103D5000D040C157DF4F4881CF58D040C057DF4FC8
:103D60005881C059D040CF56DF4F6881C159D040EB
:103D7000CE56DF4F7881C259D040CD56DF4F888173
:103D8000C359D040CC56DF4F9881C459D0400E94CF
:103D9000075EA0E00E94DE5E09F450C0C356DF4F0C
:103DA0002881CD59D040CB56DF4F2883C559D0400C
:103DB000C256DF4F3881CE59D040CA56DF4F3883C4
:103DC000C659D040C156DF4F8881CF59D040C9561F
:103DD000DF4F8883C759D040C056DF4F9881C05A03
:103DE000D040C856DF4F9883C859D040CF55DF4FD9
:103DF000A881C15AD040C756DF4FA883C959D040C7
:103E0000CE55DF4FB881C25AD040C656DF4FB88377
:103E1000CA59D040CD55DF4FE881C35AD040C5566E
:103E2000DF4FE883CB59D040CC55DF4FF881C45ADF
:103E3000D040C456DF4FF883CC59D040C356DF4F33
:103E40002881CD59D040C256DF4F3881CE59D0405D
:103E5000C156DF4F4881CF59D040C056DF4F5881FF
:103E6000C05AD040CF55DF4F6881C15AD040CE559F
:103E7000DF4F7881C25AD040CD55DF4F8881C35A79
:103E8000D040CC55DF4F9881C45AD040A1E00E9469
:103E9000DE5E09F403C3CF54DF4F2883C15BD040FB
:103EA000CE54DF4F3883C25BD040CD54DF4F4883C0
:103EB000C35BD040CC54DF4F5883C45BD040CB545D
:103EC000DF4F6883C55BD040CA54DF4F7883C65B41
:103ED000D040C954DF4F8883C75BD040C854DF4F00
:103EE0009883C85BD040E9961CAE1DAE1EAE1FAED7
:103EF000E99780E1F401DE01AB59BF4F01900D92CB
:103F00008A95E1F7CE018B599F4F0E9497119E0130
:103F10002F5A3F4F84E1D901E82F1D92EA95E9F726
:103F2000FE01B996DF01982F1D929A95E9F7FC964C
:103F3000DE01DD96982F01900D929A95E1F7FE0132
:103F40003196DF011D928A95E9F788E0C955DF4F68
:103F5000E881F981C75AD04011928A95E9F7C25396
:103F6000DF4F88819981CE5CD040892B09F0C0C297
:103F7000C555DF4F88819981CB5AD040C155DF4F5D
:103F800099838883CF5AD040CB55DF4F2883C55AB9
:103F9000D040CA55DF4F3883C65AD040CD57DF4F87
:103FA0001882C358D040CC57DF4F1882C458D04035
:103FB000C757DF4F1882C958D040C657DF4F188205
:103FC000CA58D040C557DF4F1882CB58D040C4578D
:103FD000DF4F1882CC58D040C357DF4F1882CD58DE
:103FE000D040C257DF4F1882CE58D0402E01BDE3DB
:103FF0004B0E511C4E01E9E28E0E911CEE961FAE47
:10400000EE97EF961FAEEF97C158DF4F1882CF574C
:10401000D040C058DF4F1882C058D040CF57DF4F34
:104020001882C158D040CE57DF4F1882C258D040B6
:10403000212C312C9E012F5D3F4FEB963FAF2EAFD1
:10404000EB97CE0101963C01DE011D96ED96BFAFC8
:10405000AEAFED97F2018381F0E88F9F90011124BC
:10406000D2011D968C91881F8827881F8227F20114
:104070009191929590FB979597F98927D401940196
:104080002D5E3F4F91919D932A173B07D9F7F4017D
:10409000838BCB56DF4F2881C559D040CA56DF4F9E
:1040A0003881C659D040C956DF4F4881C759D040E2
:1040B000C856DF4F5881C859D040C756DF4F688176
:1040C000C959D040C656DF4F7881CA59D040C5562D
:1040D000DF4F8881CB59D040C456DF4F9881CC59EF
:1040E000D040EE96AFACEE97EF96BFACEF97C158CD
:1040F000DF4FC880CF57D040C058DF4FD880C0585E
:10410000D040CF57DF4FE880C158D040CE57DF4F67
:10411000F880C258D04081010E94D55E09F008F4B1
:10412000F5C08CE0C355DF4FE881F981CD5AD0400E
:10413000DE01559601900D928A95E1F7EB96AEADB2
:10414000BFADEB97E8E01D92EA95E9F754E1E52E63
:10415000F12C00E010E020E030E040E050E0B2015F
:10416000CE0145960E949512CE0145960E94971168
:1041700020E030E040E050E0B201CE0145960E94E0
:104180009512CB56DF4F2881C559D040CA56DF4F14
:104190003881C659D040C956DF4F4881C759D040F1
:1041A000C856DF4F5881C859D040C756DF4F688185
:1041B000C959D040C656DF4F7881CA59D040C5563C
:1041C000DF4F8881CB59D040C456DF4F9881CC59FE
:1041D000D040AFEF0E94C05EEE96AFACEE97EF9688
:1041E000BFACEF97C158DF4FC880CF57D040C05801
:1041F000DF4FD880C058D040CF57DF4FE880C1583C
:10420000D040CE57DF4FF880C258D04081010E9485
:10421000D55E09F07EC1CB57DF4F2881C558D0400D
:10422000CA57DF4F3881C658D040C157DF4F488149
:10423000CF58D040C057DF4F5881C059D040CF56DB
:10424000DF4F6881C159D040CE56DF4F7881C259C7
:10425000D040CD56DF4F8881C359D040CC56DF4F78
:104260009881C459D040CD57DF4FA880C358D04063
:10427000CC57DF4FB880C458D040C757DF4FC880F5
:10428000C958D040C657DF4FD880CA58D040C5570C
:10429000DF4FE880CB58D040C457DF4FF880CC5870
:1042A000D040C357DF4F0881CD58D040C257DF4FB1
:1042B0001881CE58D0400E94CC5E69019B01CD5739
:1042C000DF4FA880C358D040CC57DF4FB880C458C8
:1042D000D040C555DF4F68817981CB5AD0406A0DF7
:1042E0007B1D76018A01AC01CE0145960E94951294
:1042F000A601BE016B5E7F4FC755DF4F8881998154
:10430000C95AD0408A0D9B1D0E944F60C356DF4F93
:104310002881CD59D040C256DF4F3881CE59D04088
:10432000C156DF4F4881CF59D040C056DF4F58812A
:10433000C05AD040CF55DF4F6881C15AD040CE55CA
:10434000DF4F7881C25AD040CD55DF4F8881C35AA4
:10435000D040CC55DF4F9881C45AD040EE96AFACD8
:10436000EE97EF96BFACEF97C158DF4FC880CF579D
:10437000D040C058DF4FD880C058D040CF57DF4F13
:10438000E880C158D040CE57DF4FF880C258D040A7
:1043900081010E94D55E11F008F0C5C0EE962FADE8
:1043A000EE97EF963FADEF97C158DF4F4881CF575B
:1043B000D040C058DF4F5881C058D040CF57DF4F52
:1043C0006881C158D040CE57DF4F7881C258D04065
:1043D000C101A1E00E94DE5E09F057C18CE0C35527
:1043E000DF4FE881F981CD5AD040D30101900D9281
:1043F0008A95E1F7ED96EEADFFADED9728E01192CD
:104400002A95E9F731E03D8784E1E82EF12C00E0C0
:1044100010E020E030E040E050E0CB55DF4F688115
:10442000C55AD040CA55DF4F7881C65AD040C30123
:104430000E94951220E030E040E050E0B401C3015A
:104440000E949512C3010E94971120E030E040E0E5
:1044500050E0CB55DF4F6881C55AD040CA55DF4F79
:104460007881C65AD040C3010E94951220E030E006
:1044700040E050E0B401C3010E94951298E0E92E9B
:1044800020E030E040E050E0B301C955DF4F8881C3
:104490009981C75AD0400E949512F7C022E0CF54AC
:1044A000DF4F2883C15BD040CE54DF4F1882C25B00
:1044B000D040CD54DF4F1882C35BD040CC54DF4F87
:1044C0001882C45BD040CB54DF4F1882C55BD0400C
:1044D000CA54DF4F1882C65BD040C954DF4F1882E0
:1044E000C75BD040C854DF4F1882C85BD040FBCCBC
:1044F000C755DF4FA881B981C95AD040C155DF4F98
:10450000B983A883CF5AD0403FCD24018F2E9E2E51
:10451000A1CD44E1C42ED12C40E050E020E030E0B9
:1045200080E090E0CCCECB57DF4F2881C558D040FB
:10453000CA57DF4F3881C658D040C157DF4F488136
:10454000CF58D040C057DF4F5881C059D040CF56C8
:10455000DF4F6881C159D040CE56DF4F7881C259B4
:10456000D040CD56DF4F8881C359D040CC56DF4F65
:104570009881C459D040CD57DF4FA880C358D04050
:10458000CC57DF4FB880C458D040C757DF4FC880E2
:10459000C958D040C657DF4FD880CA58D040C557F9
:1045A000DF4FE880CB58D040C457DF4FF880CC585D
:1045B000D040C357DF4F0881CD58D040C257DF4F9E
:1045C0001881CE58D0400E94D55E09F05FC184E1C9
:1045D000D3011D928A95E9F7B1E0B98324E1E22E77
:1045E000F12C00E010E020E030E040E050E0B201CB
:1045F000C3010E94951220E030E040E050E0B40199
:10460000C3010E949512C3010E94971120E030E07F
:1046100040E050E0B201C3010E94951220E030E07A
:1046200040E050E0B401C3010E94951238E0E32E4F
:1046300020E030E040E050E0B301C955DF4F888111
:104640009981C75AD0400E949512EE962FADEE97F1
:10465000EF963FADEF97C158DF4F4881CF57D0401D
:10466000C058DF4F5881C058D040CF57DF4F6881C6
:10467000C158D040CE57DF4F7881C258D040C101D9
:10468000A0E00E94DE5E09F089CECD57DF4F288181
:10469000C358D040CC57DF4F3881C458D040C7579B
:1046A000DF4F4881C958D040C657DF4F5881CA589C
:1046B000D040C557DF4F6881CB58D040C457DF4F3B
:1046C0007881CC58D040C357DF4F8881CD58D04037
:1046D000C257DF4F9881CE58D040A4E10E94C05EFF
:1046E000CD57DF4F2883C358D040CC57DF4F388396
:1046F000C458D040C757DF4F4883C958D040C65729
:10470000DF4F5883CA58D040C557DF4F6883CB5816
:10471000D040C457DF4F7883CC58D040C357DF4FC9
:104720008883CD58D040C257DF4F9883CE58D040B1
:10473000EE962FADEE97EF963FADEF97C158DF4F56
:104740004881CF57D040C058DF4F5881C058D04023
:10475000CF57DF4F6881C158D040CE57DF4F7881A7
:10476000C258D040C101A1E00E94C05EEE962FAFBA
:10477000EE97EF963FAFEF97C158DF4F4883CF5783
:10478000D040C058DF4F5883C058D040CF57DF4F7C
:104790006883C158D040CE57DF4F7883C258D0408D
:1047A0001C01CB55DF4FF881C55AD040CA55DF4FA9
:1047B000E881C65AD040CB55DF4F4882C55AD04019
:1047C000CA55DF4F5882C65AD040CF54DF4F288198
:1047D000C15BD040CE54DF4F3881C25BD040CD5456
:1047E000DF4F4881C35BD040CC54DF4F5881C45B5E
:1047F000D040CB54DF4F6881C55BD040CA54DF4FF7
:104800007881C65BD040C954DF4F8881C75BD040F8
:10481000C854DF4F9881C85BD040EE96AFACEE979E
:10482000EF96BFACEF97C158DF4FC880CF57D0404D
:10483000C058DF4FD880C058D040CF57DF4FE880F6
:10484000C158D040CE57DF4FF880C258D0408101C8
:104850000E94D55E09F059CEC854DF4F0FB6F894C8
:10486000DEBF0FBECDBFDF91CF911F910F91FF90A3
:10487000EF90DF90CF90BF90AF909F908F907F9000
:104880006F905F904F903F902F900895CD57DF4FDE
:10489000E881C358D040C957DF4FE883C758D0409C
:1048A000CC57DF4FF881C458D040C857DF4FF8834A
:1048B000C858D040C155DF4FE881F981CF5AD04068
:1048C000C957DF4F28813981C758D040E20FF31F05
:1048D000CB57DF4F2881C558D040CA57DF4F3881AA
:1048E000C658D040C157DF4F4881CF58D040C0573D
:1048F000DF4F5881C059D040CF56DF4F6881C15932
:10490000D040CE56DF4F7881C259D040CD56DF4FD0
:104910008881C359D040CC56DF4F9881C459D040CC
:10492000CD57DF4FA880C358D040CC57DF4FB88059
:10493000C458D040C757DF4FC880C958D040C65769
:10494000DF4FD880CA58D040C557DF4FE880CB58DA
:10495000D040C457DF4FF880CC58D040C357DF4F0A
:104960000881CD58D040C257DF4F1881CE58D04073
:104970000E94CC5EA3E10E94DE5E41F038F084E14B
:10498000D30101900D928A95E1F728CECB57DF4FE6
:104990000881C558D040CA57DF4F1881C658D0404B
:1049A0007801C957DF4F88819981C758D040E81AEC
:1049B000F90AA701BF01C3010E944F6044E150E022
:1049C000401B510BC957DF4FA881B981C758D04050
:1049D0004A0F5B1FC301800F911F70E060E08A1BCC
:1049E0009B0B0E945860F301EE0DFF1DB1E0B083F8
:1049F000F5CD2F923F924F925F926F927F928F925E
:104A00009F92AF92BF92CF92DF92EF92FF920F935D
:104A10001F93CF93DF93CDB7DEB7A2970FB6F8946D
:104A2000DEBF0FBECDBF1B01FC01408151812C01B7
:104A3000F2E14F0E511C3C0122E0620E711C88E134
:104A40008093BE0A1092BF0A1092C00A1092C10A47
:104A50001092C20A1092C30A1092C40A1092C50A98
:104A60001F9281E08F934301520180E1C82ED12C27
:104A7000E12CF12C00E010E020E030E0BE016F5F9F
:104A80007F4F86EC9AE00E94BE1D88E0FE013196C1
:104A9000A6EDBAE001900D928A95E1F70E944402DA
:104AA000F101608371838283938388E190E00E94A7
:104AB000FE5EF10196838583E6ECFAE0DC0188E195
:104AC00001900D928A95E1F7D090BE0AE090BF0A5E
:104AD000F090C00A0091C10A1091C20AB091C30AB5
:104AE000F091C40AE091C50A0F900F902D2D3E2D34
:104AF0004F2D502F612F7B2F8F2F9E2FA7E00E94CD
:104B0000DE5E09F0D8F4F1011482A2960FB6F89493
:104B1000DEBF0FBECDBFDF91CF911F910F91FF90F0
:104B2000EF90DF90CF90BF90AF909F908F907F904D
:104B30006F905F904F903F902F900895A8EF0E9444
:104B4000C05E29A33AA31F921F92C9A0DAA07A01DE
:104B50008B019C0146EC5AE0BE01675E7F4FCE019F
:104B600001960E94BE1D49A15AA1FE0179960F909F
:104B70000F9090E080E020E03191DA01A80FB91F9A
:104B8000AA53B54F6C913627232B01968830910597
:104B900099F72111B8CF81E0F1018483B6CF8F92CC
:104BA0009F92AF92BF92CF92DF92EF92FF920F93BC
:104BB0001F93CF93DF9300D01F92CDB7DEB7FC01D8
:104BC0008581813091F080E00F900F900F900F90D1
:104BD000DF91CF911F910F91FF90EF90DF90CF90D9
:104BE000BF90AF909F908F900895848181FFEBCF0D
:104BF00083899489A589B689892B8A2B8B2B09F403
:104C00005FC07F0140E050E0BA01CF010E94FD0883
:104C10008823C9F2F701C38CD48C8788908CA18C2F
:104C2000B28C82E090E0A0E0B0E0F6018083918356
:104C3000A283B3839E012F5F3F4FB501A401C6013C
:104C40000E94BD07882309F4BECF00E010E0980160
:104C5000B501A401C6010E941B07882309F4B3CF44
:104C600089809A80AB80BC80F6018789803119F1F8
:104C700088EF9FEFAFEFBFE088169906AA06BB0644
:104C8000C8F2F701178A108E118E128E138A148AB9
:104C9000158A168A84818068848361E0C7010E9436
:104CA000910A882309F48FCF40E050E0BA01C70190
:104CB0000E94FD0889CF88EF9FEFA0E0B0E0DCCF35
:104CC00081E082CFCF92DF92EF92FF921F93CF933A
:104CD000DF93EC0180E2689FF0011124EF50F54F63
:104CE0009385917161F0842F827449F080E0DF91A7
:104CF000CF911F91FF90EF90DF90CF900895142FE8
:104D00006A8B8091000290910102A0910202B09101
:104D100003028E879F87A88BB98BC488D588F12C16
:104D2000E12C7601DD24CC24CF8AD88EE98EFA8E50
:104D3000828D938DB0E0A0E0AC01BD014C295D29CE
:104D40006E297F294F8B588F698F7A8F8385887161
:104D5000B1F4848D958DA68DB78D8B8B9C8BAD8B8F
:104D6000BE8B81E08D831F701C831E821F8218867C
:104D700019861A861B861C861D8681E0B8CF803175
:104D800009F0B4CF9E012D5E3F4F8B8D9C8D0E940C
:104D90003E08882309F4AACF84E0E4CF3F924F92E3
:104DA0005F926F927F928F929F92AF92BF92CF92BB
:104DB000DF92EF92FF920F931F93CF93DF9300D078
:104DC00000D000D01F921F92CDB7DEB77C01DC016E
:104DD00015968C91811115C0FE013196CE010C966D
:104DE0006F0130E23193E817F907E1F7DA0130E0BB
:104DF00087E09D91B92E992329F19E3239F48A30AA
:104E000011F480E0DAC038E08AE0F3CFE4EBF1E0BF
:104E10004491442321F031969413FACFF2CF8317B3
:104E200080F34FED490F4E3560F74FE9490F4A3196
:104E300018F440EEB42EB90EF601E30FF11DB08266
:104E40003F5FD7CF89818032E1F2322E8B01FB01A7
:104E5000838D948DD7015C969C938E935B9716827D
:104E60001782108611861286138614861586F8011D
:104E700082859385A485B58543895489658976891A
:104E800084179507A607B70708F04DC025E0B6952B
:104E9000A795979587952A95D1F7F82FFF70AF2E94
:104EA000D80115968C91823008F4ABCFC8010E94CE
:104EB0009F0D97FDA6CFF80182859385A485B585C2
:104EC0004F96A11DB11D82879387A487B587F0E215
:104ED000AF9EB00111246F50754F6115710509F433
:104EE00090CFDB018C91882341F0853E09F058C0BA
:104EF000BB2029F0BB24B394BACFB1100EC0F70188
:104F0000A28A8091000290910102A0910202B091C8
:104F1000030286879787A08BB18BDB018C9181116F
:104F2000E9CFBB24B394832D8271823109F069CF1C
:104F3000BB2009F45AC0C7010E94D905009709F4A3
:104F400060CF20E2FC0111922A95E9F72BE0F601EF
:104F5000DC0101900D922A95E1F721E238E2DC01B3
:104F600051963C932E93509740E058E01F965C93E7
:104F70004E931E9753963C932E93529759963C937B
:104F80002E93589757965C934E93569781E00E94C4
:104F90006405882309F435CF432DF70162890AC0DF
:104FA0004BE050E0C6010E944260892B09F05FCFC0
:104FB000432D6A2DC7010E9462262B960FB6F894E6
:104FC000DEBF0FBECDBFDF91CF911F910F91FF903C
:104FD000EF90DF90CF90BF90AF909F908F907F9099
:104FE0006F905F904F903F900895F80185818230D7
:104FF00009F407CFC8010E949109882309F401CF61
:10500000D8015B96ED91FC915C9716968D909D90E2
:10501000AD90BC901997B2E08B1A9108A108B10825
:10502000858504C0880C991CAA1CBB1C8A95D2F7E4
:1050300086859785A089B189880E991EAA1EBB1EF8
:10504000848124013501480E511C611C711C84149B
:105050009504A604B70409F1E1E04E1A510861086D
:10506000710881E00E946405882309F4CACEE1EF4B
:10507000FAE0119281EF9CE08E179F07D1F74092E2
:10508000000250920102609202027092030280912B
:10509000E00A81608093E00ADACFD8015B96ED9157
:1050A000FC91258580E092E0A0E0B0E004C0880F8C
:1050B000991FAA1FBB1F2A95D2F7F801438954896B
:1050C00065897689840F951FA61FB71F838B948BE4
:1050D000A58BB68BD70152961C9281EF9AE031CF07
:1050E0006F927F928F929F92AF92BF92CF92DF92F8
:1050F000EF92FF920F931F93CF93DF93CDB7DEB75D
:10510000C754D1090FB6F894DEBF0FBECDBF5C0106
:1051100019A218A289E795E09F8F8E8F1BA21C828F
:105120001B829A8389831E82912C812C7E018EE1C1
:10513000E80EF11C0AEB1DE0C401F401EE51FA4F38
:1051400020812F3209F40196DC01AE51BA4FFE01E5
:10515000FB9630E020E06F014D914F3249F044233F
:1051600039F001962F5F3F4F41932C303105A1F765
:105170002C0D3D1DF9011082FC01EE51FA4F2081EA
:105180002F3209F401964C01FC01EE51FA4F608078
:1051900041E0611040E030E020E0B601C801F501D7
:1051A0001995782E81111CC0FDE00A3B1F0779F587
:1051B000712C872DC95BDF4F0FB6F894DEBF0FBE91
:1051C000CDBFDF91CF911F910F91FF90EF90DF90B6
:1051D000CF90BF90AF909F908F907F906F900895E9
:1051E000662089F021E0A601B801C7010E94CE2601
:1051F000D82E8DE00A3B180771F0C8010E94290BD8
:10520000D1100EC0D5CFEDE00A3B1E0791F2C801C8
:105210000E94290BCECFDD2059F28E010F5F1F4F68
:10522000902F812F8701E92EF82E86CF1F93CF93E1
:10523000DF93CDB7DEB76D970FB6F894DEBF0FBE24
:10524000CDBFAB011C821B8229E735E03A8329835D
:105250001E8221E0BC01CE0101960E94CE2611E003
:1052600081110CC010E0812F6D960FB6F894DEBF4F
:105270000FBECDBFDF91CF911F910895CE01019652
:105280000E94290BF0CFCF93DF93CDB7DEB76D9798
:105290000FB6F894DEBF0FBECDBF442399F1AB012A
:1052A000BC011C821B8289E795E09A8389831E8258
:1052B00022E0CE0101960E94CE2681110EC090E020
:1052C00081E0911101C080E06D960FB6F894DEBFC9
:1052D0000FBECDBFDF91CF910895CE0101960E9400
:1052E000CF25882361F3CE0101960E94D90500974E
:1052F00031F325EEFC0120831E8281E00E946405CB
:10530000982FDECF81E0E0CFEF92FF920F931F93B3
:10531000CF93DF93EC017B018A011B821A8288EE16
:1053200093E0A0E0B0E08C839D83AE83BF8385E5EE
:1053300095E0998388838DE190E00E94FE5E9A8FCC
:10534000898F009779F02DE1F701DC0101900D9232
:105350002A95E1F74CE050E0B801CE010C960E948E
:105360006660188EDF91CF911F910F91FF90EF90A3
:105370000895CF92DF92FF920F931F93CF93DF9305
:10538000CDB7DEB7C755D1090FB6F894DEBF0FBE53
:10539000CDBF8C01F62E1C821B8289E7C82E85E0CA
:1053A000D82EDA82C9821E82CE0101960E94A908F7
:1053B000BE016F5F7F4FCE01CB960E94E20C19A217
:1053C00018A2DF8ECE8E1BA221968FAD2197811160
:1053D00022C0F8011382128288EE93E0A0E0B0E0D0
:1053E00084839583A683B78385E595E09183808345
:1053F000128E118E1486C801C95ADF4F0FB6F89469
:10540000DEBF0FBECDBFDF91CF911F910F91FF90F7
:10541000DF90CF9008952F2D42EE55E0BE01655CE0
:105420007F4FCE014E960E94CE26882391F2CE0168
:10543000CB960E94290B8F2D8670863041F449A9A6
:105440005AA96BA97CA9CE014E960E94FD08BE0107
:10545000625E7F4FCE0101960E94E20C42EE55E063
:10546000BE016F5F7F4FC8010E948429C4CFFB013A
:1054700001900020E9F73197AF01461B570BDC0183
:10548000ED91FC910280F381E02D1994BC0181EF34
:105490009CE00C94372A0F931F93CF93DF93EC017A
:1054A0000E94372A8C016EEE75E0CE010E94372AE9
:1054B000800F911FDF91CF911F910F9108952F922F
:1054C0003F924F925F926F927F928F929F92AF9294
:1054D000BF92CF92DF92EF92FF920F931F93CF93E1
:1054E000DF93CDB7DEB7CB56D1090FB6F894DEBF48
:1054F0000FBECDBFFC0169967FAF6EAF6997808507
:10550000918565969FAF8EAF659790816A969FAFA4
:105510006A97A1816B96AFAF6B97B2816C96BFAF64
:105520006C9723816D962FAF6D9784816E968FAFA8
:105530006E9795816F969FAF6F97A681A096AFAF3C
:10554000A097B781A196BFAFA19765968EAD9FAD8D
:1055500065970E94BE13A9968FAFA997AA969FAF91
:10556000AA9762968FAF629763969FAF63976A968A
:10557000AFAC6A976B96BFAC6B976C96CFAC6C97E1
:105580006D96DFAC6D976E966FAC6E976F967FAC35
:105590006F97A0968FACA097A1969FACA19744243B
:1055A0004394512CF0E0E0E066961FAE6697679654
:1055B0001FAE6797A2961FAEA297A3961FAEA397A2
:1055C000A4961FAEA497212CA5961FAEA597A696CC
:1055D0001FAEA6979501A601B301C4010E2F0E942C
:1055E000815E2F7022962FAF229723961FAE2397AE
:1055F00024961FAE249725961FAE259726961FAE9C
:10560000269727961FAE279728961FAE289729968C
:105610001FAE29972396AEADBFAD2397AF50BB4FBA
:105620002C9130E040E050E060E070E080E090E0FD
:105630000E94665E6696AFAD6697A227A796AFAF4B
:10564000A7976796EFAC6797E326A296FFACA29761
:10565000F426A3961FADA3971527A496BFADA497D4
:10566000B627AB96BFAFAB972726AC962FAEAC97BD
:10567000A5963FACA5973826A696AFADA697A927C5
:10568000A896AFAFA897A796BFADA7976696BFAFEE
:1056900066976796EFAE6797A296FFAEA297A3961E
:1056A0001FAFA397AB96AFADAB97A496AFAFA49740
:1056B000A5963FAEA597A896BFADA897A696BFAFF3
:1056C000A6973496E034F10509F084CFFE013196B7
:1056D0005F016F01F0E0E0E0A7962FADA7973E2DA8
:1056E0004F2D512FAB966FADAB97AC967FADAC976E
:1056F000832DA8969FADA8970E2F0E94815E2170E2
:10570000D6012D936D013196E034F10529F791EB27
:10571000E92E94E0F92E812C912CC12CD12C712CE6
:10572000612CF0E0E0E0D7010D917D01D5012D91D4
:105730005D0130E040E050E060E070E080E090E04B
:105740000E94665E82269326C426D5267626672684
:10575000F827E92781EF94E08E159F0521F76396DE
:10576000AEADBFAD63970D911D916396BFAFAEAF68
:10577000639772019401A601672D762D8F2F9E2FBE
:105780000E948A1059016A013B014C01BFEF4B1A7C
:105790005B0AEDE14E16510409F004CFA9968FADD6
:1057A000A997AA969FADAA970E94951D0E944402B0
:1057B0006996AEADBFAD69976D937D938D939C93C4
:1057C000139788E090E00E94FE5EFC016996AEAD02
:1057D000BFAD699716969C938E931597892B09F404
:1057E00027C1A082B182C282D382648275828682FE
:1057F000978265968EAD9FAD65970E94BE131C0182
:10580000FC01F8966396FFAFEEAF63978CE1482EEC
:10581000512C6396AEADBFAD63971E910E9163960A
:10582000BFAFAEAF639772019501A601B301C4018A
:105830000E948A10922EA32EB42EC52ED62EE72EAD
:10584000F82E192FFE0131962396FFAFEEAF239766
:10585000DF01F0E0E0E0292D3A2D4B2D5C2D6D2D80
:105860007E2D8F2D912F0E2F0E94815E21702D9302
:105870003196E034F10579F7E1E0F5E0612C712C27
:10588000812C912CA12CB12CC12CD12C01912396CF
:10589000AEADBFAD23972D912396BFAFAEAF23978B
:1058A00030E040E050E060E070E080E090E00E9496
:1058B000665E622664966FAE6497E72CE326F82C4A
:1058C000F426192D1527A626A296AFAEA297B726C5
:1058D000A396BFAEA397C8266696CFAE6697D92685
:1058E0006796DFAE67977E2C8F2C912E81E495E032
:1058F0008E179F0759F6F0E0E0E0A12CB12CC12CE7
:10590000D12C612C712C812C912C64962FAD649735
:105910003E2D4F2D512FA2966FADA297A3967FAD2E
:10592000A39766968FAD669767969FAD67970E2F84
:105930000E94815E2F702A962FAF2A972B961FAE5A
:105940002B972C961FAE2C972D961FAE2D972E962B
:105950001FAE2E972F961FAE2F9760961FAE6097A3
:1059600061961FAE61972B968EAD9FAD2B978F5B87
:105970009A4FDC012C9130E040E050E060E070E0B4
:1059800080E090E00E94665EA226B326C426D5265B
:1059900066267726882699263496E034F10509F0A4
:1059A000B4CFB1E04B1A510809F033CFC1010E94C6
:1059B000951DE1E06A962FAD6A976B963FAD6B97A8
:1059C0006C964FAD6C976D965FAD6D976E966FADA3
:1059D0006E976F967FAD6F97A0968FADA097A196AB
:1059E0009FADA197730184010E94D55E09F0E0E0AC
:1059F0006996AEADBFAD69971496EC93C559DF4F6C
:105A00000FB6F894DEBF0FBECDBFDF91CF911F91CF
:105A10000F91FF90EF90DF90CF90BF90AF909F904D
:105A20008F907F906F905F904F903F902F90089550
:105A300061EF75E081EF9CE00E944B2ADACE2F9255
:105A40003F924F925F926F927F928F929F92AF920E
:105A5000BF92CF92DF92EF92FF920F93CF93DF939B
:105A6000CDB7DEB762970FB6F894DEBF0FBECDBFDD
:105A70009C878B8753E0880F991F5A95E1F70E9406
:105A8000FE5E5C01009709F487C09A8B898B1A86A9
:105A90001986CC24CA94DC2CE12CF12C0E94305DB8
:105AA0002B013C010E94305D69837A838B839C8348
:105AB000C301B201A70196010E94885D3B015524F4
:105AC000442469817A818B819C81A70196010E947F
:105AD000885DA3019201262B372B482B592B298354
